{
  "contractName": "AtomicSwapERC20ToERC20",
  "abi": [
    {
      "anonymous": false,
      "inputs": [
        {
          "indexed": false,
          "name": "_swapID",
          "type": "bytes32"
        },
        {
          "indexed": false,
          "name": "_closeTrader",
          "type": "address"
        }
      ],
      "name": "Open",
      "type": "event"
    },
    {
      "anonymous": false,
      "inputs": [
        {
          "indexed": false,
          "name": "_swapID",
          "type": "bytes32"
        }
      ],
      "name": "Expire",
      "type": "event"
    },
    {
      "anonymous": false,
      "inputs": [
        {
          "indexed": false,
          "name": "_swapID",
          "type": "bytes32"
        }
      ],
      "name": "Close",
      "type": "event"
    },
    {
      "constant": false,
      "inputs": [
        {
          "name": "_swapID",
          "type": "bytes32"
        },
        {
          "name": "_openValue",
          "type": "uint256"
        },
        {
          "name": "_openContractAddress",
          "type": "address"
        },
        {
          "name": "_closeValue",
          "type": "uint256"
        },
        {
          "name": "_closeTrader",
          "type": "address"
        },
        {
          "name": "_closeContractAddress",
          "type": "address"
        }
      ],
      "name": "open",
      "outputs": [],
      "payable": false,
      "stateMutability": "nonpayable",
      "type": "function"
    },
    {
      "constant": false,
      "inputs": [
        {
          "name": "_swapID",
          "type": "bytes32"
        }
      ],
      "name": "close",
      "outputs": [],
      "payable": false,
      "stateMutability": "nonpayable",
      "type": "function"
    },
    {
      "constant": false,
      "inputs": [
        {
          "name": "_swapID",
          "type": "bytes32"
        }
      ],
      "name": "expire",
      "outputs": [],
      "payable": false,
      "stateMutability": "nonpayable",
      "type": "function"
    },
    {
      "constant": true,
      "inputs": [
        {
          "name": "_swapID",
          "type": "bytes32"
        }
      ],
      "name": "check",
      "outputs": [
        {
          "name": "openValue",
          "type": "uint256"
        },
        {
          "name": "openContractAddress",
          "type": "address"
        },
        {
          "name": "closeValue",
          "type": "uint256"
        },
        {
          "name": "closeTrader",
          "type": "address"
        },
        {
          "name": "closeContractAddress",
          "type": "address"
        }
      ],
      "payable": false,
      "stateMutability": "view",
      "type": "function"
    }
  ],
  "bytecode": "0x6060604052341561000f57600080fd5b6108d18061001e6000396000f3006060604052600436106100485763ffffffff60e060020a600035041663399e0792811461004d57806339c79e0c1461009f5780635454a438146100b7578063c6441798146100ec575b600080fd5b341561005857600080fd5b610063600435610102565b604051948552600160a060020a0393841660208601526040808601939093529083166060850152909116608083015260a0909101905180910390f35b34156100aa57600080fd5b6100b56004356101a5565b005b34156100c257600080fd5b6100b5600435602435600160a060020a036044358116906064359060843581169060a43516610430565b34156100f757600080fd5b6100b56004356106ff565b6000806000806000610112610870565b600087815260208190526040908190209060c090519081016040908152825482526001830154600160a060020a03908116602084015260028401548116918301919091526003830154606083015260048301548116608083015260059092015490911660a0820152905080518160400151826060015183608001518460a00151939b929a50909850965090945092505050565b6101ad610870565b60008083600160008281526001602052604090205460ff1660038111156101d057fe5b146101da57600080fd5b600085815260208190526040908190209060c09051908101604090815282548252600180840154600160a060020a039081166020808601919091526002808701548316858701526003870154606087015260048701548316608087015260059096015490911660a0850190815260008b815292909152919020805460ff1916909317909255945051925082600160a060020a031663dd62ed3e85608001513060405160e060020a63ffffffff8516028152600160a060020a03928316600482015291166024820152604401602060405180830381600087803b15156102be57600080fd5b5af115156102cb57600080fd5b50505060405180519050846060015111156102e557600080fd5b82600160a060020a03166323b872dd85608001518660200151876060015160405160e060020a63ffffffff8616028152600160a060020a0393841660048201529190921660248201526044810191909152606401602060405180830381600087803b151561035257600080fd5b5af1151561035f57600080fd5b50505060405180519050151561037457600080fd5b8360400151915081600160a060020a031663a9059cbb8560800151865160405160e060020a63ffffffff8516028152600160a060020a0390921660048301526024820152604401602060405180830381600087803b15156103d457600080fd5b5af115156103e157600080fd5b5050506040518051905015156103f657600080fd5b7fc9d8209586aca26a4f59cc70108e4cf2f637da8cb4133c78a3946bc50581ea288560405190815260200160405180910390a15050505050565b600061043a610870565b876000808281526001602052604090205460ff16600381111561045957fe5b1461046357600080fd5b86925082600160a060020a031663dd62ed3e333060405160e060020a63ffffffff8516028152600160a060020a03928316600482015291166024820152604401602060405180830381600087803b15156104bc57600080fd5b5af115156104c957600080fd5b505050604051805189111590506104df57600080fd5b82600160a060020a03166323b872dd33308b60405160e060020a63ffffffff8616028152600160a060020a0393841660048201529190921660248201526044810191909152606401602060405180830381600087803b151561054057600080fd5b5af1151561054d57600080fd5b50505060405180519050151561056257600080fd5b60c06040519081016040908152898252600160a060020a033381166020808501919091528a821683850152606084018a9052888216608085015290871660a084015260008c81529081905220909250829081518155602082015160018201805473ffffffffffffffffffffffffffffffffffffffff1916600160a060020a0392909216919091179055604082015160028201805473ffffffffffffffffffffffffffffffffffffffff1916600160a060020a039290921691909117905560608201518160030155608082015160048201805473ffffffffffffffffffffffffffffffffffffffff1916600160a060020a039290921691909117905560a0820151600591909101805473ffffffffffffffffffffffffffffffffffffffff1916600160a060020a03909216919091179055506000898152600160208190526040909120805460ff1916828002179055507fb5894ff5a344c5160302de0b2027c5b55f4914e9d8e8c11b377b559e5ec789eb8986604051918252600160a060020a031660208201526040908101905180910390a1505050505050505050565b610707610870565b600082600160008281526001602052604090205460ff16600381111561072957fe5b1461073357600080fd5b600084815260208190526040908190209060c09051908101604090815282548252600180840154600160a060020a0390811660208086019190915260028601548216848601908152600380880154606088015260048801548416608088015260059097015490921660a086015260008a8152929052919020805460ff1916909317909255935051915081600160a060020a031663a9059cbb8460200151855160405160e060020a63ffffffff8516028152600160a060020a0390921660048301526024820152604401602060405180830381600087803b151561081557600080fd5b5af1151561082257600080fd5b50505060405180519050151561083757600080fd5b7fbddd9b693ea862fad6ecf78fd51c065be26fda94d1f3cad3a7d691453a38a7358460405190815260200160405180910390a150505050565b60c06040519081016040908152600080835260208301819052908201819052606082018190526080820181905260a0820152905600a165627a7a72305820f7a5c92ad36d0b4307b3d4392d8ac076fb57d36eb2fcfd5f4ac4ea9004a350f30029",
  "source": "pragma solidity ^0.4.21;\n\nimport {ERC20Interface as ERC20} from \"../erc20/ERC20Interface.sol\";\n\ncontract AtomicSwapERC20ToERC20 {\n\n  struct Swap {\n    uint256 openValue;\n    address openTrader;\n    address openContractAddress;\n    uint256 closeValue;\n    address closeTrader;\n    address closeContractAddress;\n  }\n\n  enum States {\n    INVALID,\n    OPEN,\n    CLOSED,\n    EXPIRED\n  }\n\n  mapping (bytes32 => Swap) private swaps;\n  mapping (bytes32 => States) private swapStates;\n\n  event Open(bytes32 _swapID, address _closeTrader);\n  event Expire(bytes32 _swapID);\n  event Close(bytes32 _swapID);\n\n  modifier onlyInvalidSwaps(bytes32 _swapID) {\n    require (swapStates[_swapID] == States.INVALID);\n    _;\n  }\n\n  modifier onlyOpenSwaps(bytes32 _swapID) {\n    require (swapStates[_swapID] == States.OPEN);\n    _;\n  }\n\n  function open(bytes32 _swapID, uint256 _openValue, address _openContractAddress, uint256 _closeValue, address _closeTrader, address _closeContractAddress) public onlyInvalidSwaps(_swapID) {\n    // Transfer value from the opening trader to this contract.\n    ERC20 openERC20Contract = ERC20(_openContractAddress);\n    require(_openValue <= openERC20Contract.allowance(msg.sender, address(this)));\n    require(openERC20Contract.transferFrom(msg.sender, address(this), _openValue));\n\n    // Store the details of the swap.\n    Swap memory swap = Swap({\n      openValue: _openValue,\n      openTrader: msg.sender,\n      openContractAddress: _openContractAddress,\n      closeValue: _closeValue,\n      closeTrader: _closeTrader,\n      closeContractAddress: _closeContractAddress\n    });\n    swaps[_swapID] = swap;\n    swapStates[_swapID] = States.OPEN;\n\n    emit Open(_swapID, _closeTrader);\n  }\n\n  function close(bytes32 _swapID) public onlyOpenSwaps(_swapID) {\n    // Close the swap.\n    Swap memory swap = swaps[_swapID];\n    swapStates[_swapID] = States.CLOSED;\n\n    // Transfer the closing funds from the closing trader to the opening trader.\n    ERC20 closeERC20Contract = ERC20(swap.closeContractAddress);\n    require(swap.closeValue <= closeERC20Contract.allowance(swap.closeTrader, address(this)));\n    require(closeERC20Contract.transferFrom(swap.closeTrader, swap.openTrader, swap.closeValue));\n\n    // Transfer the opening funds from this contract to the closing trader.\n    ERC20 openERC20Contract = ERC20(swap.openContractAddress);\n    require(openERC20Contract.transfer(swap.closeTrader, swap.openValue));\n\n    emit Close(_swapID);\n  }\n\n  function expire(bytes32 _swapID) public onlyOpenSwaps(_swapID) {\n    // Expire the swap.\n    Swap memory swap = swaps[_swapID];\n    swapStates[_swapID] = States.EXPIRED;\n\n    // Transfer opening value from this contract back to the opening trader.\n    ERC20 openERC20Contract = ERC20(swap.openContractAddress);\n    require(openERC20Contract.transfer(swap.openTrader, swap.openValue));\n\n    emit Expire(_swapID);\n  }\n\n  function check(bytes32 _swapID) public view returns (uint256 openValue, address openContractAddress, uint256 closeValue, address closeTrader, address closeContractAddress) {\n    Swap memory swap = swaps[_swapID];\n    return (swap.openValue, swap.openContractAddress, swap.closeValue, swap.closeTrader, swap.closeContractAddress);\n  }\n}",
  "sourcePath": "/Users/alesanro/Documents/Projects/ChronoBank/AtomicSwap/contracts/core/atomicswap/AtomicSwapERC20ToERC20.sol",
  "compiler": {
    "name": "solc",
    "version": "0.4.21+commit.dfe3193c.Emscripten.clang"
  },
  "schemaVersion": "2.0.0",
  "updatedAt": "2018-04-14T16:01:41.184Z"
}