{
  "contractName": "AtomicSwapERC20",
  "abi": [
    {
      "anonymous": false,
      "inputs": [
        {
          "indexed": false,
          "name": "_swapID",
          "type": "bytes32"
        },
        {
          "indexed": false,
          "name": "_withdrawTrader",
          "type": "address"
        },
        {
          "indexed": false,
          "name": "_secretLock",
          "type": "bytes32"
        }
      ],
      "name": "Open",
      "type": "event"
    },
    {
      "anonymous": false,
      "inputs": [
        {
          "indexed": false,
          "name": "_swapID",
          "type": "bytes32"
        }
      ],
      "name": "Expire",
      "type": "event"
    },
    {
      "anonymous": false,
      "inputs": [
        {
          "indexed": false,
          "name": "_swapID",
          "type": "bytes32"
        },
        {
          "indexed": false,
          "name": "_secretKey",
          "type": "bytes"
        }
      ],
      "name": "Close",
      "type": "event"
    },
    {
      "constant": false,
      "inputs": [
        {
          "name": "_swapID",
          "type": "bytes32"
        },
        {
          "name": "_erc20Value",
          "type": "uint256"
        },
        {
          "name": "_erc20ContractAddress",
          "type": "address"
        },
        {
          "name": "_withdrawTrader",
          "type": "address"
        },
        {
          "name": "_secretLock",
          "type": "bytes32"
        },
        {
          "name": "_timelock",
          "type": "uint256"
        }
      ],
      "name": "open",
      "outputs": [],
      "payable": false,
      "stateMutability": "nonpayable",
      "type": "function"
    },
    {
      "constant": false,
      "inputs": [
        {
          "name": "_swapID",
          "type": "bytes32"
        },
        {
          "name": "_secretKey",
          "type": "bytes"
        }
      ],
      "name": "close",
      "outputs": [],
      "payable": false,
      "stateMutability": "nonpayable",
      "type": "function"
    },
    {
      "constant": false,
      "inputs": [
        {
          "name": "_swapID",
          "type": "bytes32"
        }
      ],
      "name": "expire",
      "outputs": [],
      "payable": false,
      "stateMutability": "nonpayable",
      "type": "function"
    },
    {
      "constant": true,
      "inputs": [
        {
          "name": "_swapID",
          "type": "bytes32"
        }
      ],
      "name": "check",
      "outputs": [
        {
          "name": "timelock",
          "type": "uint256"
        },
        {
          "name": "erc20Value",
          "type": "uint256"
        },
        {
          "name": "erc20ContractAddress",
          "type": "address"
        },
        {
          "name": "withdrawTrader",
          "type": "address"
        },
        {
          "name": "secretLock",
          "type": "bytes32"
        }
      ],
      "payable": false,
      "stateMutability": "view",
      "type": "function"
    },
    {
      "constant": true,
      "inputs": [
        {
          "name": "_swapID",
          "type": "bytes32"
        }
      ],
      "name": "checkSecretKey",
      "outputs": [
        {
          "name": "secretKey",
          "type": "bytes"
        }
      ],
      "payable": false,
      "stateMutability": "view",
      "type": "function"
    }
  ],
  "bytecode": "0x6060604052341561000f57600080fd5b610e3f8061001e6000396000f3006060604052600436106100535763ffffffff60e060020a6000350416631a26720c8114610058578063399e0792146100b05780635d44011e14610104578063c644179814610135578063f200e4041461014b575b600080fd5b341561006357600080fd5b6100ae600480359060446024803590810190830135806020601f820181900481020160405190810160405281815292919060208401838380828437509496506101d895505050505050565b005b34156100bb57600080fd5b6100c660043561051e565b6040519485526020850193909352600160a060020a0391821660408086019190915291166060840152608083019190915260a0909101905180910390f35b341561010f57600080fd5b6100ae600435602435600160a060020a036044358116906064351660843560a435610669565b341561014057600080fd5b6100ae600435610993565b341561015657600080fd5b610161600435610bcd565b60405160208082528190810183818151815260200191508051906020019080838360005b8381101561019d578082015183820152602001610185565b50505050905090810190601f1680156101ca5780820380516001836020036101000a031916815260200191505b509250505060405180910390f35b6101e0610d23565b600083600160008281526001602052604090205460ff16600381111561020257fe5b1461020c57600080fd5b84846002816040518082805190602001908083835b602083106102405780518252601f199092019160209182019101610221565b6001836020036101000a0380198251168184511680821785525050505050509050019150506020604051808303816000865af1151561027e57600080fd5b505060405180516000848152602081905260409020600501541490506102a357600080fd5b600087815260208190526040908190209060e09051908101604090815282548252600180840154602080850191909152600280860154600160a060020a03908116858701526003870154811660608701526004870154166080860152600586015460a086015260068601805495969560c088019591948116156101000260001901169190910491601f8301819004810201905190810160405280929190818152602001828054600181600116156101000203166002900480156103a75780601f1061037c576101008083540402835291602001916103a7565b820191906000526020600020905b81548152906001019060200180831161038a57829003601f168201915b5050509190925250505060008881526020819052604090209095506006018680516103d6929160200190610d66565b506000878152600160205260409020805460ff191660021790556060850151935083600160a060020a031663a9059cbb8660800151876020015160405160e060020a63ffffffff8516028152600160a060020a0390921660048301526024820152604401602060405180830381600087803b151561045357600080fd5b5af1151561046057600080fd5b50505060405180519050151561047557600080fd5b7f692fd10a275135b9a2a2f5819db3d9965a5129ea2ad3640a0156dbce2fc81bdd878760405182815260406020820181815290820183818151815260200191508051906020019080838360005b838110156104da5780820151838201526020016104c2565b50505050905090810190601f1680156105075780820380516001836020036101000a031916815260200191505b50935050505060405180910390a150505050505050565b600080600080600061052e610d23565b600087815260208190526040908190209060e09051908101604090815282548252600180840154602080850191909152600280860154600160a060020a03908116858701526003870154811660608701526004870154166080860152600586015460a086015260068601805495969560c088019591948116156101000260001901169190910491601f8301819004810201905190810160405280929190818152602001828054600181600116156101000203166002900480156106325780601f1061060757610100808354040283529160200191610632565b820191906000526020600020905b81548152906001019060200180831161061557829003601f168201915b505050505081525050905080600001518160200151826060015183608001518460a00151939b929a50909850965090945092505050565b6000610673610d23565b876000808281526001602052604090205460ff16600381111561069257fe5b1461069c57600080fd5b60008981526001602052604081205460ff1660038111156106b957fe5b146106c357600080fd5b86925082600160a060020a031663dd62ed3e333060405160e060020a63ffffffff8516028152600160a060020a03928316600482015291166024820152604401602060405180830381600087803b151561071c57600080fd5b5af1151561072957600080fd5b5050506040518051891115905061073f57600080fd5b82600160a060020a03166323b872dd33308b60405160e060020a63ffffffff8616028152600160a060020a0393841660048201529190921660248201526044810191909152606401602060405180830381600087803b15156107a057600080fd5b5af115156107ad57600080fd5b5050506040518051905015156107c257600080fd5b60e06040519081016040528085815260200189815260200133600160a060020a0316815260200188600160a060020a0316815260200187600160a060020a031681526020018660001916815260200160006040518059106108205750595b818152601f19601f83011681016020016040529050905260008a815260208190526040902090925082908151815560208201518160010155604082015160028201805473ffffffffffffffffffffffffffffffffffffffff1916600160a060020a0392909216919091179055606082015160038201805473ffffffffffffffffffffffffffffffffffffffff1916600160a060020a0392909216919091179055608082015160048201805473ffffffffffffffffffffffffffffffffffffffff1916600160a060020a039290921691909117905560a0820151600582015560c082015181600601908051610918929160200190610d66565b5050506000898152600160208190526040909120805460ff1916828002179055507f6ed79a08bf5c8a7d4a330df315e4ac386627ecafbe5d2bfd6654237d967b24f3898787604051928352600160a060020a0390911660208301526040808301919091526060909101905180910390a1505050505050505050565b61099b610d23565b600082600160008281526001602052604090205460ff1660038111156109bd57fe5b146109c757600080fd5b6000848152602081905260409020548490429011156109e557600080fd5b600085815260208190526040908190209060e09051908101604090815282548252600180840154602080850191909152600280860154600160a060020a03908116858701526003870154811660608701526004870154166080860152600586015460a086015260068601805495969560c088019591948116156101000260001901169190910491601f830181900481020190519081016040528092919081815260200182805460018160011615610100020316600290048015610ae95780601f10610abe57610100808354040283529160200191610ae9565b820191906000526020600020905b815481529060010190602001808311610acc57829003601f168201915b505050919092525050506000868152600160205260409020805460ff1916600317905593506060840151925082600160a060020a031663a9059cbb8560400151866020015160405160e060020a63ffffffff8516028152600160a060020a0390921660048301526024820152604401602060405180830381600087803b1515610b7157600080fd5b5af11515610b7e57600080fd5b505050604051805190501515610b9357600080fd5b7fbddd9b693ea862fad6ecf78fd51c065be26fda94d1f3cad3a7d691453a38a7358560405190815260200160405180910390a15050505050565b610bd5610de4565b610bdd610d23565b82600260008281526001602052604090205460ff166003811115610bfd57fe5b14610c0757600080fd5b600084815260208190526040908190209060e09051908101604090815282548252600180840154602080850191909152600280860154600160a060020a03908116858701526003870154811660608701526004870154166080860152600586015460a086015260068601805495969560c088019591948116156101000260001901169190910491601f830181900481020190519081016040528092919081815260200182805460018160011615610100020316600290048015610d0b5780601f10610ce057610100808354040283529160200191610d0b565b820191906000526020600020905b815481529060010190602001808311610cee57829003601f168201915b50505050508152505091508160c00151949350505050565b60e06040519081016040908152600080835260208301819052908201819052606082018190526080820181905260a082015260c08101610d61610de4565b905290565b828054600181600116156101000203166002900490600052602060002090601f016020900481019282601f10610da757805160ff1916838001178555610dd4565b82800160010185558215610dd4579182015b82811115610dd4578251825591602001919060010190610db9565b50610de0929150610df6565b5090565b60206040519081016040526000815290565b610e1091905b80821115610de05760008155600101610dfc565b905600a165627a7a72305820b76cfe413fd6869482db7e6a14fd5344188d085082645a4858f472d3d61af2780029",
  "source": "pragma solidity ^0.4.21;\n\nimport {ERC20Interface as ERC20} from \"../erc20/ERC20Interface.sol\";\n\ncontract AtomicSwapERC20 {\n\n  struct Swap {\n    uint256 timelock;\n    uint256 erc20Value;\n    address erc20Trader;\n    address erc20ContractAddress;\n    address withdrawTrader;\n    bytes32 secretLock;\n    bytes secretKey;\n  }\n\n  enum States {\n    INVALID,\n    OPEN,\n    CLOSED,\n    EXPIRED\n  }\n\n  mapping (bytes32 => Swap) private swaps;\n  mapping (bytes32 => States) private swapStates;\n\n  event Open(bytes32 _swapID, address _withdrawTrader,bytes32 _secretLock);\n  event Expire(bytes32 _swapID);\n  event Close(bytes32 _swapID, bytes _secretKey);\n\n  modifier onlyInvalidSwaps(bytes32 _swapID) {\n    require (swapStates[_swapID] == States.INVALID);\n    _;\n  }\n\n  modifier onlyOpenSwaps(bytes32 _swapID) {\n    require (swapStates[_swapID] == States.OPEN);\n    _;\n  }\n\n  modifier onlyClosedSwaps(bytes32 _swapID) {\n    require (swapStates[_swapID] == States.CLOSED);\n    _;\n  }\n\n  modifier onlyExpirableSwaps(bytes32 _swapID) {\n    require (swaps[_swapID].timelock <= now);\n    _;\n  }\n\n  modifier onlyWithSecretKey(bytes32 _swapID, bytes _secretKey) {\n    // TODO: Require _secretKey length to conform to the spec\n    require (swaps[_swapID].secretLock == sha256(_secretKey));\n    _;\n  }\n\n  function open(bytes32 _swapID, uint256 _erc20Value, address _erc20ContractAddress, address _withdrawTrader, bytes32 _secretLock, uint256 _timelock) public onlyInvalidSwaps(_swapID) {\n    require(swapStates[_swapID] == States.INVALID);\n    // Transfer value from the ERC20 trader to this contract.\n    ERC20 erc20Contract = ERC20(_erc20ContractAddress);\n    require(_erc20Value <= erc20Contract.allowance(msg.sender, address(this)));\n    require(erc20Contract.transferFrom(msg.sender, address(this), _erc20Value));\n\n    // Store the details of the swap.\n    Swap memory swap = Swap({\n      timelock: _timelock,\n      erc20Value: _erc20Value,\n      erc20Trader: msg.sender,\n      erc20ContractAddress: _erc20ContractAddress,\n      withdrawTrader: _withdrawTrader,\n      secretLock: _secretLock,\n      secretKey: new bytes(0)\n    });\n    swaps[_swapID] = swap;\n    swapStates[_swapID] = States.OPEN;\n    emit Open(_swapID, _withdrawTrader, _secretLock);\n  }\n\n  function close(bytes32 _swapID, bytes _secretKey) public onlyOpenSwaps(_swapID) onlyWithSecretKey(_swapID, _secretKey) {\n    // Close the swap.\n    Swap memory swap = swaps[_swapID];\n    swaps[_swapID].secretKey = _secretKey;\n    swapStates[_swapID] = States.CLOSED;\n\n    // Transfer the ERC20 funds from this contract to the withdrawing trader.\n    ERC20 erc20Contract = ERC20(swap.erc20ContractAddress);\n    require(erc20Contract.transfer(swap.withdrawTrader, swap.erc20Value));\n\n    emit Close(_swapID, _secretKey);    \n  }\n\n  function expire(bytes32 _swapID) public onlyOpenSwaps(_swapID) onlyExpirableSwaps(_swapID) {\n    // Expire the swap.\n    Swap memory swap = swaps[_swapID];\n    swapStates[_swapID] = States.EXPIRED;\n\n    // Transfer the ERC20 value from this contract back to the ERC20 trader.\n    ERC20 erc20Contract = ERC20(swap.erc20ContractAddress);\n    require(erc20Contract.transfer(swap.erc20Trader, swap.erc20Value));\n\n    emit Expire(_swapID);\n  }\n\n  function check(bytes32 _swapID) public view returns (uint256 timelock, uint256 erc20Value, address erc20ContractAddress, address withdrawTrader, bytes32 secretLock) {\n    Swap memory swap = swaps[_swapID];\n    return (swap.timelock, swap.erc20Value, swap.erc20ContractAddress, swap.withdrawTrader, swap.secretLock);\n  }\n\n  function checkSecretKey(bytes32 _swapID) public view onlyClosedSwaps(_swapID) returns (bytes secretKey) {\n    Swap memory swap = swaps[_swapID];\n    return swap.secretKey;\n  }\n}",
  "sourcePath": "/Users/alesanro/Documents/Projects/ChronoBank/AtomicSwap/contracts/core/atomicswap/AtomicSwapERC20.sol",
  "compiler": {
    "name": "solc",
    "version": "0.4.21+commit.dfe3193c.Emscripten.clang"
  },
  "schemaVersion": "2.0.0",
  "updatedAt": "2018-04-14T16:01:29.183Z"
}