{
  "contractName": "Deposits",
  "abi": [
    {
      "constant": false,
      "inputs": [],
      "name": "claimContractOwnership",
      "outputs": [
        {
          "name": "",
          "type": "bool"
        }
      ],
      "payable": false,
      "stateMutability": "nonpayable",
      "type": "function"
    },
    {
      "constant": false,
      "inputs": [
        {
          "name": "_to",
          "type": "address"
        }
      ],
      "name": "changeContractOwnership",
      "outputs": [
        {
          "name": "",
          "type": "bool"
        }
      ],
      "payable": false,
      "stateMutability": "nonpayable",
      "type": "function"
    },
    {
      "constant": true,
      "inputs": [],
      "name": "pendingContractOwner",
      "outputs": [
        {
          "name": "",
          "type": "address"
        }
      ],
      "payable": false,
      "stateMutability": "view",
      "type": "function"
    },
    {
      "constant": false,
      "inputs": [],
      "name": "destroy",
      "outputs": [],
      "payable": false,
      "stateMutability": "nonpayable",
      "type": "function"
    },
    {
      "constant": false,
      "inputs": [
        {
          "name": "_to",
          "type": "address"
        }
      ],
      "name": "transferContractOwnership",
      "outputs": [
        {
          "name": "",
          "type": "bool"
        }
      ],
      "payable": false,
      "stateMutability": "nonpayable",
      "type": "function"
    },
    {
      "constant": true,
      "inputs": [
        {
          "name": "",
          "type": "address"
        }
      ],
      "name": "oracles",
      "outputs": [
        {
          "name": "",
          "type": "bool"
        }
      ],
      "payable": false,
      "stateMutability": "view",
      "type": "function"
    },
    {
      "constant": true,
      "inputs": [],
      "name": "contractOwner",
      "outputs": [
        {
          "name": "",
          "type": "address"
        }
      ],
      "payable": false,
      "stateMutability": "view",
      "type": "function"
    },
    {
      "constant": false,
      "inputs": [
        {
          "name": "tokens",
          "type": "address[]"
        },
        {
          "name": "_to",
          "type": "address"
        }
      ],
      "name": "withdrawnTokens",
      "outputs": [
        {
          "name": "",
          "type": "uint256"
        }
      ],
      "payable": false,
      "stateMutability": "nonpayable",
      "type": "function"
    },
    {
      "constant": true,
      "inputs": [],
      "name": "eventsHistory",
      "outputs": [
        {
          "name": "",
          "type": "address"
        }
      ],
      "payable": false,
      "stateMutability": "view",
      "type": "function"
    },
    {
      "inputs": [],
      "payable": false,
      "stateMutability": "nonpayable",
      "type": "constructor"
    },
    {
      "anonymous": false,
      "inputs": [
        {
          "indexed": true,
          "name": "self",
          "type": "address"
        },
        {
          "indexed": true,
          "name": "account",
          "type": "address"
        },
        {
          "indexed": false,
          "name": "amount",
          "type": "uint256"
        },
        {
          "indexed": false,
          "name": "token",
          "type": "address"
        }
      ],
      "name": "Locked",
      "type": "event"
    },
    {
      "anonymous": false,
      "inputs": [
        {
          "indexed": true,
          "name": "self",
          "type": "address"
        },
        {
          "indexed": true,
          "name": "account",
          "type": "address"
        },
        {
          "indexed": false,
          "name": "amount",
          "type": "uint256"
        },
        {
          "indexed": false,
          "name": "token",
          "type": "address"
        }
      ],
      "name": "Withdrawn",
      "type": "event"
    },
    {
      "anonymous": false,
      "inputs": [
        {
          "indexed": true,
          "name": "self",
          "type": "address"
        },
        {
          "indexed": false,
          "name": "errorCode",
          "type": "uint256"
        }
      ],
      "name": "Error",
      "type": "event"
    },
    {
      "constant": false,
      "inputs": [
        {
          "name": "_eventsHistory",
          "type": "address"
        }
      ],
      "name": "setupEventsHistory",
      "outputs": [
        {
          "name": "",
          "type": "uint256"
        }
      ],
      "payable": false,
      "stateMutability": "nonpayable",
      "type": "function"
    },
    {
      "constant": false,
      "inputs": [
        {
          "name": "_oracle",
          "type": "address"
        }
      ],
      "name": "addOracles",
      "outputs": [
        {
          "name": "",
          "type": "uint256"
        }
      ],
      "payable": false,
      "stateMutability": "nonpayable",
      "type": "function"
    },
    {
      "constant": false,
      "inputs": [
        {
          "name": "_oracle",
          "type": "address"
        }
      ],
      "name": "removeOracles",
      "outputs": [
        {
          "name": "",
          "type": "uint256"
        }
      ],
      "payable": false,
      "stateMutability": "nonpayable",
      "type": "function"
    },
    {
      "constant": false,
      "inputs": [
        {
          "name": "_amount",
          "type": "uint256"
        },
        {
          "name": "_token",
          "type": "address"
        }
      ],
      "name": "lockToken",
      "outputs": [
        {
          "name": "",
          "type": "uint256"
        }
      ],
      "payable": false,
      "stateMutability": "nonpayable",
      "type": "function"
    },
    {
      "constant": false,
      "inputs": [
        {
          "name": "_to",
          "type": "address"
        },
        {
          "name": "_amount",
          "type": "uint256"
        },
        {
          "name": "_token",
          "type": "address"
        }
      ],
      "name": "withdrawToken",
      "outputs": [
        {
          "name": "",
          "type": "uint256"
        }
      ],
      "payable": false,
      "stateMutability": "nonpayable",
      "type": "function"
    },
    {
      "constant": false,
      "inputs": [
        {
          "name": "_account",
          "type": "address"
        },
        {
          "name": "_amount",
          "type": "uint256"
        },
        {
          "name": "_token",
          "type": "address"
        }
      ],
      "name": "emitLocked",
      "outputs": [],
      "payable": false,
      "stateMutability": "nonpayable",
      "type": "function"
    },
    {
      "constant": false,
      "inputs": [
        {
          "name": "_account",
          "type": "address"
        },
        {
          "name": "_amount",
          "type": "uint256"
        },
        {
          "name": "_token",
          "type": "address"
        }
      ],
      "name": "emitWithdrawn",
      "outputs": [],
      "payable": false,
      "stateMutability": "nonpayable",
      "type": "function"
    },
    {
      "constant": false,
      "inputs": [
        {
          "name": "_errorCode",
          "type": "uint256"
        }
      ],
      "name": "emitError",
      "outputs": [],
      "payable": false,
      "stateMutability": "nonpayable",
      "type": "function"
    }
  ],
  "bytecode": "0x6060604052341561000f57600080fd5b60008054600160a060020a03338116600160a060020a031992831617909255600380543090931692909116919091179055610c3d8061004f6000396000f3006060604052600436106100d75763ffffffff60e060020a60003504166302927d2081146100dc5780631ae7621e1461010d57806321c886591461012c5780633ccdbb28146101575780634592cd1d14610180578063557f4bc9146101a75780635aa77d3c146101c657806376ab446b146101f557806383197ef014610214578063a843c51f14610227578063addd509914610246578063ce606ee014610265578063cec1460b14610278578063d8f9659b1461029a578063df26ca08146102f4578063e8203e381461030a578063f07629f814610333575b600080fd5b34156100e757600080fd5b6100fb600160a060020a0360043516610346565b60405190815260200160405180910390f35b341561011857600080fd5b6100fb600160a060020a03600435166103ac565b341561013757600080fd5b610155600160a060020a036004358116906024359060443516610402565b005b341561016257600080fd5b6100fb600160a060020a036004358116906024359060443516610465565b341561018b57600080fd5b6101936105cc565b604051901515815260200160405180910390f35b34156101b257600080fd5b610193600160a060020a0360043516610624565b34156101d157600080fd5b6101d9610684565b604051600160a060020a03909116815260200160405180910390f35b341561020057600080fd5b6100fb600160a060020a0360043516610693565b341561021f57600080fd5b6101556106d0565b341561023257600080fd5b610193600160a060020a03600435166106f5565b341561025157600080fd5b610193600160a060020a0360043516610786565b341561027057600080fd5b6101d961079b565b341561028357600080fd5b6100fb600435600160a060020a03602435166107aa565b34156102a557600080fd5b6100fb600460248135818101908301358060208181020160405190810160405280939291908181526020018383602002808284375094965050509235600160a060020a031692506108e5915050565b34156102ff57600080fd5b610155600435610a1a565b341561031557600080fd5b610155600160a060020a036004358116906024359060443516610a61565b341561033e57600080fd5b6101d9610ac4565b6000805433600160a060020a03908116911614156103a757600160a060020a03821615156103745730610376565b815b6003805473ffffffffffffffffffffffffffffffffffffffff1916600160a060020a03929092169190911790555060015b919050565b6000805433600160a060020a03908116911614156103a757600160a060020a03821615156103d957600080fd5b50600160a060020a03166000908152600260205260409020805460ff1916600190811790915590565b82600160a060020a0316610414610ad3565b600160a060020a03167f4c6ab40ee4cfa212a441d32ee2897945b4a52461284f9369e23fdf8faa6cdd698484604051918252600160a060020a031660208201526040908101905180910390a3505050565b600160a060020a03331660009081526002602052604081205460ff16156105c557600160a060020a038416151561049b57600080fd5b8215156104a757600080fd5b600160a060020a03821615156104bc57600080fd5b8282600160a060020a03166370a082313060405160e060020a63ffffffff8416028152600160a060020a039091166004820152602401602060405180830381600087803b151561050b57600080fd5b5af1151561051857600080fd5b50505060405180519050101561053a576105336184d2610ad7565b90506105c5565b81600160a060020a031663a9059cbb338560405160e060020a63ffffffff8516028152600160a060020a0390921660048301526024820152604401602060405180830381600087803b151561058e57600080fd5b5af1151561059b57600080fd5b5050506040518051905015156105b6576105336184d4610ad7565b6105c1848484610b38565b5060015b9392505050565b60015460009033600160a060020a039081169116146105ed57506000610621565b50600180546000805473ffffffffffffffffffffffffffffffffffffffff19908116600160a060020a038416179091551681555b90565b6000805433600160a060020a03908116911614156103a757600160a060020a0382161515610654575060006103a7565b5060018054600160a060020a03831673ffffffffffffffffffffffffffffffffffffffff19909116178155919050565b600154600160a060020a031681565b6000805433600160a060020a03908116911614156103a75750600160a060020a03166000908152600260205260409020805460ff19169055600190565b60005433600160a060020a03908116911614156106f35733600160a060020a0316ff5b565b6000805433600160a060020a03908116911614156103a757600160a060020a0382161515610725575060006103a7565b600154600160a060020a031615610754576001805473ffffffffffffffffffffffffffffffffffffffff191690555b5060008054600160a060020a03831673ffffffffffffffffffffffffffffffffffffffff199091161790556001919050565b60026020526000908152604090205460ff1681565b600054600160a060020a031681565b6000600160a060020a03821615156107c157600080fd5b8282600160a060020a031663dd62ed3e333060405160e060020a63ffffffff8516028152600160a060020a03928316600482015291166024820152604401602060405180830381600087803b151561081857600080fd5b5af1151561082557600080fd5b505050604051805190501015610847576108406184d1610ad7565b90506108df565b81600160a060020a03166323b872dd33308660405160e060020a63ffffffff8616028152600160a060020a0393841660048201529190921660248201526044810191909152606401602060405180830381600087803b15156108a857600080fd5b5af115156108b557600080fd5b5050506040518051905015156108d0576108406184d3610ad7565b6108db338484610baf565b5060015b92915050565b6000805481908190819033600160a060020a0390811691161415610a1157600092505b8551831015610a0c5785838151811061091d57fe5b90602001906020020151915081600160a060020a03166370a082313060405160e060020a63ffffffff8416028152600160a060020a039091166004820152602401602060405180830381600087803b151561097757600080fd5b5af1151561098457600080fd5b50505060405180519150508015610a015781600160a060020a031663a9059cbb868360405160e060020a63ffffffff8516028152600160a060020a0390921660048301526024820152604401602060405180830381600087803b15156109e957600080fd5b5af115156109f657600080fd5b505050604051805150505b600190920191610908565b600193505b50505092915050565b610a22610ad3565b600160a060020a03167f9cf38cf2dbf9139f5c32639950507b10775fbbe0421f3e168bc2d1bb1ae3208c8260405190815260200160405180910390a250565b82600160a060020a0316610a73610ad3565b600160a060020a03167f889d364b5102aee044ff370e2e6a836584e5618a16dce4f5b191459cf3903e588484604051918252600160a060020a031660208201526040908101905180910390a3505050565b600354600160a060020a031681565b3390565b600354600090600160a060020a031663df26ca088360405160e060020a63ffffffff84160281526004810191909152602401600060405180830381600087803b1515610b2257600080fd5b5af11515610b2f57600080fd5b50929392505050565b600354600160a060020a031663e8203e3884848460405160e060020a63ffffffff8616028152600160a060020a03938416600482015260248101929092529091166044820152606401600060405180830381600087803b1515610b9a57600080fd5b5af11515610ba757600080fd5b505050505050565b600354600160a060020a03166321c8865984848460405160e060020a63ffffffff8616028152600160a060020a03938416600482015260248101929092529091166044820152606401600060405180830381600087803b1515610b9a57600080fd00a165627a7a723058208fca01eade8439e8abfc58a936bca2df655bd9c99ce460605c2f6fe0e0cd94bb0029",
  "source": "/**\n * Copyright 2017–2018, LaborX PTY\n * Licensed under the AGPL Version 3 license.\n */\n\npragma solidity ^0.4.21;\n\n\nimport \"../erc20/ERC20Interface.sol\";\nimport \"../common/Object.sol\";\nimport \"../event/MultiEventsHistoryAdapter.sol\";\n\n/// @title Supposed to be a token holder for cross-chain operations with tokens\n/// Users usually should lock their token balance in this contract and request \n/// a middleware on a target sidechain to provide their currency.\n/// To get users' tokens back users should request middleware to withdraw their\n/// balance and send them to AtomicSwap contract\ncontract Deposits is Object, MultiEventsHistoryAdapter {\n\t\n\tuint constant DEPOSITS_SCOPE = 34000;\n\tuint constant DEPOSITS_NOT_ENOUGH_ALLOWANCE = DEPOSITS_SCOPE + 1;\n\tuint constant DEPOSITS_NOT_ENOUGH_BALANCE = DEPOSITS_SCOPE + 2;\n\tuint constant DEPOSITS_CANNOT_LOCK_TOKENS = DEPOSITS_SCOPE + 3;\n\tuint constant DEPOSITS_CANNOT_WITHDRAW_TOKENS = DEPOSITS_SCOPE + 4;\n\n\tevent Locked(address indexed self, address indexed account, uint256 amount, address token);\n\tevent Withdrawn(address indexed self, address indexed account, uint256 amount, address token);\n\tevent Error(address indexed self, uint errorCode);\n\n\tmapping(address => bool) public oracles;\n\taddress public eventsHistory;\n\n\t/// @dev Allow access only for oracle\n    modifier onlyOracle {\n        if (oracles[msg.sender]) {\n            _;\n        }\n    }\n\n\tfunction Deposits() public {\n\t\teventsHistory = address(this);\n\t}\n\n\tfunction setupEventsHistory(address _eventsHistory) onlyContractOwner external returns (uint) {\n\t\teventsHistory = (_eventsHistory != 0x0) ? _eventsHistory : address(this);\n\t\treturn OK;\n\t}\n\n\t/// @notice Adds oracle to whitelist\n    /// @param _oracle an account address that will manage withdrawing operations\n    function addOracles(address _oracle) onlyContractOwner external returns (uint) {\n        require(_oracle != 0x0);\n\n\t\toracles[_oracle] = true;\n        return OK;\n    }\n\n    /// @notice Removes oracle from whitelist\n    /// @param _oracle an account address that will be blacklisted from withdrawing operations\n    function removeOracles(address _oracle) onlyContractOwner external returns (uint) {\n        delete oracles[_oracle];\n        return OK;\n    }\n\n\t/// @notice Locks users' token balances to provide an opportunity to use sidechains.\n\t/// Usually users send tokens to Deposits balance and then receive equivalent number \n\t/// of tokens in a sidechain network.\n\t/// Locking amount of tokens should be at first approved by user for withdrawings.\n\t/// @param _amount amount of tokens that will be locked\n\t/// @param _token ERC20 token address\n\tfunction lockToken(uint256 _amount, address _token) external returns (uint) {\n\t\trequire(_token != 0x0);\n\t\t\n\t\tif (ERC20Interface(_token).allowance(msg.sender, address(this)) < _amount) {\n\t\t\treturn _emitError(DEPOSITS_NOT_ENOUGH_ALLOWANCE);\n\t\t}\n\n\t\tif (!ERC20Interface(_token).transferFrom(msg.sender, address(this), _amount)) {\n\t\t\treturn _emitError(DEPOSITS_CANNOT_LOCK_TOKENS);\n\t\t}\n\n\t\t_emitLocked(msg.sender, _amount, _token);\n\t\treturn OK;\n\t}\n\n\t/// @notice Opposite to 'lockToken' function, starts a procedure of returning tokens that were locked.\n\t/// Should be performed by one of authorized oracles; then token balance will be transfered to oracle's\n\t/// account and proceeded for the next actions (as transferred to AtomicSwap contract).\n\t/// @param _to the final destination for tokens (a user)\n\t/// @param _amount amount of tokens to withdraw\n\t/// @param _token ERC20 token address\n\tfunction withdrawToken(address _to, uint256 _amount, address _token) onlyOracle external returns (uint) {\n\t\trequire(_to != 0x0);\n\t\trequire(_amount != 0);\n\t\trequire(_token != 0x0);\n\n\t\tif (ERC20Interface(_token).balanceOf(address(this)) < _amount) {\n\t\t\treturn _emitError(DEPOSITS_NOT_ENOUGH_BALANCE);\n\t\t}\n\n\t\tif (!ERC20Interface(_token).transfer(msg.sender, _amount)) {\n\t\t\treturn _emitError(DEPOSITS_CANNOT_WITHDRAW_TOKENS);\n\t\t}\n\n\t\t_emitWithdrawn(_to, _amount, _token);\n\t\treturn OK;\n\t}\n\n\tfunction emitLocked(address _account, uint256 _amount, address _token) public {\n\t\temit Locked(_self(), _account, _amount, _token);\n\t}\n\n\tfunction emitWithdrawn(address _account, uint256 _amount, address _token) public {\n\t\temit Withdrawn(_self(), _account, _amount, _token);\n\t}\n\n\tfunction emitError(uint _errorCode) public {\n\t\temit Error(_self(), _errorCode);\n\t}\n\n\tfunction _emitLocked(address _account, uint256 _amount, address _token) private {\n\t\tDeposits(eventsHistory).emitLocked(_account, _amount, _token);\n\t}\n\n\tfunction _emitWithdrawn(address _account, uint256 _amount, address _token) private {\n\t\tDeposits(eventsHistory).emitWithdrawn(_account, _amount, _token);\n\t}\n\n\tfunction _emitError(uint _errorCode) private returns (uint) {\n\t\tDeposits(eventsHistory).emitError(_errorCode);\n\t\treturn _errorCode;\n\t}\n}",
  "sourcePath": "/Users/alesanro/Documents/Projects/ChronoBank/AtomicSwap/contracts/core/deposits/Deposits.sol",
  "compiler": {
    "name": "solc",
    "version": "0.4.21+commit.dfe3193c.Emscripten.clang"
  },
  "schemaVersion": "2.0.0",
  "updatedAt": "2018-04-14T16:01:00.710Z"
}