{
  "contractName": "MultiEventsHistory",
  "abi": [
    {
      "constant": false,
      "inputs": [],
      "name": "claimContractOwnership",
      "outputs": [
        {
          "name": "",
          "type": "bool"
        }
      ],
      "payable": false,
      "stateMutability": "nonpayable",
      "type": "function"
    },
    {
      "constant": false,
      "inputs": [
        {
          "name": "_to",
          "type": "address"
        }
      ],
      "name": "changeContractOwnership",
      "outputs": [
        {
          "name": "",
          "type": "bool"
        }
      ],
      "payable": false,
      "stateMutability": "nonpayable",
      "type": "function"
    },
    {
      "constant": true,
      "inputs": [],
      "name": "pendingContractOwner",
      "outputs": [
        {
          "name": "",
          "type": "address"
        }
      ],
      "payable": false,
      "stateMutability": "view",
      "type": "function"
    },
    {
      "constant": false,
      "inputs": [],
      "name": "destroy",
      "outputs": [],
      "payable": false,
      "stateMutability": "nonpayable",
      "type": "function"
    },
    {
      "constant": false,
      "inputs": [
        {
          "name": "_to",
          "type": "address"
        }
      ],
      "name": "transferContractOwnership",
      "outputs": [
        {
          "name": "",
          "type": "bool"
        }
      ],
      "payable": false,
      "stateMutability": "nonpayable",
      "type": "function"
    },
    {
      "constant": true,
      "inputs": [],
      "name": "contractOwner",
      "outputs": [
        {
          "name": "",
          "type": "address"
        }
      ],
      "payable": false,
      "stateMutability": "view",
      "type": "function"
    },
    {
      "constant": false,
      "inputs": [
        {
          "name": "tokens",
          "type": "address[]"
        },
        {
          "name": "_to",
          "type": "address"
        }
      ],
      "name": "withdrawnTokens",
      "outputs": [
        {
          "name": "",
          "type": "uint256"
        }
      ],
      "payable": false,
      "stateMutability": "nonpayable",
      "type": "function"
    },
    {
      "constant": true,
      "inputs": [
        {
          "name": "",
          "type": "address"
        }
      ],
      "name": "isAuthorized",
      "outputs": [
        {
          "name": "",
          "type": "bool"
        }
      ],
      "payable": false,
      "stateMutability": "view",
      "type": "function"
    },
    {
      "payable": false,
      "stateMutability": "nonpayable",
      "type": "fallback"
    },
    {
      "constant": false,
      "inputs": [
        {
          "name": "_caller",
          "type": "address"
        }
      ],
      "name": "authorize",
      "outputs": [
        {
          "name": "",
          "type": "bool"
        }
      ],
      "payable": false,
      "stateMutability": "nonpayable",
      "type": "function"
    },
    {
      "constant": false,
      "inputs": [
        {
          "name": "_caller",
          "type": "address"
        }
      ],
      "name": "reject",
      "outputs": [],
      "payable": false,
      "stateMutability": "nonpayable",
      "type": "function"
    }
  ],
  "bytecode": "0x606060405260008054600160a060020a033316600160a060020a0319909116179055610666806100306000396000f30060606040526004361061008a5763ffffffff60e060020a6000350416634592cd1d81146100f8578063557f4bc91461011f5780635aa77d3c1461013e57806383197ef01461016d578063a843c51f14610180578063ab0da5a91461019f578063b6a5d7de146101be578063ce606ee0146101dd578063d8f9659b146101f0578063fe9fbb801461025c575b341561009557600080fd5b600160a060020a03331660009081526002602052604090205460ff1615156100bc576100f6565b33600160a060020a031660003660405180838380828437820191505092505050600060405180830381855af491505015156100f657600080fd5b005b341561010357600080fd5b61010b61027b565b604051901515815260200160405180910390f35b341561012a57600080fd5b61010b600160a060020a03600435166102d3565b341561014957600080fd5b610151610332565b604051600160a060020a03909116815260200160405180910390f35b341561017857600080fd5b6100f6610341565b341561018b57600080fd5b61010b600160a060020a0360043516610366565b34156101aa57600080fd5b6100f6600160a060020a03600435166103f7565b34156101c957600080fd5b61010b600160a060020a0360043516610455565b34156101e857600080fd5b6101516104e1565b34156101fb57600080fd5b61024a600460248135818101908301358060208181020160405190810160405280939291908181526020018383602002808284375094965050509235600160a060020a031692506104f0915050565b60405190815260200160405180910390f35b341561026757600080fd5b61010b600160a060020a0360043516610625565b60015460009033600160a060020a0390811691161461029c575060006102d0565b50600180546000805473ffffffffffffffffffffffffffffffffffffffff19908116600160a060020a038416179091551681555b90565b6000805433600160a060020a039081169116141561032d57600160a060020a03821615156103035750600061032d565b506001805473ffffffffffffffffffffffffffffffffffffffff1916600160a060020a0383161781555b919050565b600154600160a060020a031681565b60005433600160a060020a03908116911614156103645733600160a060020a0316ff5b565b6000805433600160a060020a039081169116141561032d57600160a060020a03821615156103965750600061032d565b600154600160a060020a0316156103c5576001805473ffffffffffffffffffffffffffffffffffffffff191690555b5060008054600160a060020a03831673ffffffffffffffffffffffffffffffffffffffff199091161790556001919050565b600160a060020a03331660009081526002602052604090205460ff168061042c575060005433600160a060020a039081169116145b1561045257600160a060020a0381166000908152600260205260409020805460ff191690555b50565b600160a060020a03331660009081526002602052604081205460ff168061048a575060005433600160a060020a039081169116145b1561032d57600160a060020a03821660009081526002602052604090205460ff16156104b85750600061032d565b50600160a060020a03166000908152600260205260409020805460ff1916600190811790915590565b600054600160a060020a031681565b6000805481908190819033600160a060020a039081169116141561061c57600092505b85518310156106175785838151811061052857fe5b90602001906020020151915081600160a060020a03166370a082313060405160e060020a63ffffffff8416028152600160a060020a039091166004820152602401602060405180830381600087803b151561058257600080fd5b5af1151561058f57600080fd5b5050506040518051915050801561060c5781600160a060020a031663a9059cbb868360405160e060020a63ffffffff8516028152600160a060020a0390921660048301526024820152604401602060405180830381600087803b15156105f457600080fd5b5af1151561060157600080fd5b505050604051805150505b600190920191610513565b600193505b50505092915050565b60026020526000908152604090205460ff16815600a165627a7a72305820d816a6edf28e3a4e49225cbeda2964f9e5f743a963c034ebc011952ba7be99910029",
  "source": "/**\n * Copyright 2017–2018, LaborX PTY\n * Licensed under the AGPL Version 3 license.\n */\n\npragma solidity ^0.4.11;\n\nimport \"../common/Object.sol\";\n\n/**\n * @title Events History universal multi contract.\n *\n * Contract serves as an Events storage for any type of contracts.\n * Events appear on this contract address but their definitions provided by calling contracts.\n *\n * Note: all the non constant functions return false instead of throwing in case if state change\n * didn't happen yet.\n */\ncontract MultiEventsHistory is Object {\n    // Authorized calling contracts.\n    mapping(address => bool) public isAuthorized;\n\n    modifier onlyAuthorized {\n        if(isAuthorized[msg.sender] || contractOwner == msg.sender) {\n            _;\n        }\n    }\n\n    /**\n     * Authorize new caller contract.\n     *\n     * @param _caller address of the new caller.\n     *\n     * @return success.\n     */\n    function authorize(address _caller) onlyAuthorized external returns (bool) {\n        if (isAuthorized[_caller]) {\n            return false;\n        }\n        isAuthorized[_caller] = true;\n        return true;\n    }\n\n    /**\n     * Reject access.\n     *\n     * @param _caller address of the caller.\n     */\n    function reject(address _caller) onlyAuthorized external {\n        delete isAuthorized[_caller];\n    }\n\n    /**\n     * Event emitting fallback.\n     *\n     * Can be and only called by authorized caller.\n     * Delegate calls back with provided msg.data to emit an event.\n     *\n     * Throws if call failed.\n     */\n    function () public {\n        if (!isAuthorized[msg.sender]) {\n            return;\n        }\n        // Internal Out Of Gas/Throw: revert this transaction too;\n        // Recursive Call: safe, all changes already made.\n        if (!msg.sender.delegatecall(msg.data)) {\n            revert();\n        }\n    }\n}\n",
  "sourcePath": "/Users/alesanro/Documents/Projects/ChronoBank/AtomicSwap/contracts/core/event/MultiEventsHistory.sol",
  "compiler": {
    "name": "solc",
    "version": "0.4.21+commit.dfe3193c.Emscripten.clang"
  },
  "schemaVersion": "2.0.0",
  "updatedAt": "2018-04-14T16:01:00.703Z"
}